:20606200D294D29022D294D290900002126168C294900002026168C290900001126168D2BC
:2060820094900001126168D290900001126168C294900001026168C290900001126168C2FE
:2060A20094900001126168D290900001126168D294900001026168E582900005F07E007F65
:2060C20000C290900001C007C006126168900005E024809294900005E025E0F09000011227
:2060E2006168D290900002126168D006D0070EBE00010FC3EE9408EF6480948040C3C290F4
:20610200D294900002126168D290900002126168A29422900006E4F07F00C290D294900052
:2061220002C007126168D290900001126168D007A294E433FE8F057407C39DFD8DF005F0EB
:20614200EE800225E0D5F0FBFD900006E04DF0900001C007126168D0070FBF080040BB90ED
:206162000006E0F58222AF83E582900007F0EFA3F0900007E0FEA3E0FF7C007D00C3EC9EBF
:14618200ED64808FF063F08095F050070CBC00ED0D80EA22BC
:0360000002600635
:03605F00026003D9
:036003000261A98E
:20619600758E0C90000022758920758DFD759850D28E2212619D12606243D902900009E4AD
:2061B600F090000AF075820012630075820012633A126259AE82EE24D0FFBF0102800FBF4F
:2061D6000202801ABF03028039BF0444802290000AE0FFE0603AEF1490000AF08032900023
:2061F6000AE0FFBF0300502890000AEF04F08020900009E0FFBF03005016900009EF04F02D
:20621600800E900009E0FFE06006EF14900009F090000AE0F582126300900009E0F5821228
:04623600633A808DBA
:20623A00AF83E58290000BF0EFA3F03099FD90000BE0FEA3E0FF8E99C2998E828F83221007
:20625A00980280FBAE997F008E828F8322AFF0AE83E58290000DF0EEA3F0EFA3F090000DA1
:20627A00E0FDA3E0FEA3E0FF7B007C008D828E838FF0126357FA60360DBD00010E90000DBC
:20629A00EDF0EEA3F0EFA3F08A017A0089828A83C007C006C005C004C00312623AD003D0BD
:2062BA0004D005D006D0070BBB00C10C80BE90000DEDF0EEA3F0EFA3F00BBB00010C8B8210
:2062DA008C8322126259AE82AF83C007C00612623A90000D12623A90000A12623AD006D0D0
:0662FA00078E828F832253
:20630000E582900010F01260677582701260B940F87582001260B940F8900010E0FF8FF08B
:2063200005F07401800225E0D5F0FBFF8F82C0071260B9D00740F5026099E582900011F0AB
:17634000E030E004D2928002C292900011E030E103D29322C2932285
:06603500E478FFF6D8FD3F
:206013007900E94400601B7A00906373781275A000E493F2A308B8000205A0D9F4DAF2754C
:02603300A0FFCC
:20603B007800E84400600A790575A000E4F309D8FC780DE84400600C7901900005E4F0A34D
:04605B00D8FCD9FA9A
:0D600600758107126196E582600302600358
:1C63570020F71430F6148883A88220F507E6A88375830022E280F7E49322E02255
:00000001FF
